:020000040800F2
:1000000000000220452200086D1A00086F1A00083F
:10001000711A0008731A0008751A00080000000021
:10002000000000000000000000000000771A000837
:10003000791A0008000000007B1A00087D1A0008E9
:1000400095220008952200089522000895220008B4
:1000500095220008952200089522000895220008A4
:1000600095220008851A00089522000895220008AC
:100070009522000895220008952200089522000884
:100080009522000895220008952200080000000033
:10009000000000000000000000000000F91A000845
:1000A0009522000895220008952200089522000854
:1000B000291B0008391B000895220008952200081A
:1000C0009522000895220008952200089522000834
:1000D00095220008952200089522000800000000E3
:1000E000711B0008952200089522000800000000FE
:1000F0000000000000000000000000009522000841
:1001000000000000952200089522000895220008B2
:1001100000000000000000000000000000000000DF
:1001200095220008952200089522000895220008D3
:100130009522000800000000000000000000000000
:1001400000000000000000000000000095220008F0
:1001500095220008952200089522000895220008A3
:100160009522000895220008000000000000000011
:10017000000000000000000000000000000000007F
:1001800000000000952200080000000000000000B0
:080190009522000895220008E9
:1001A00010B5054C237833B9044B13B10448AFF3B1
:1001B00000800123237010BD7000002000000000AB
:1001C0004459000808B5034B1BB103490348AFF37A
:1001D000008008BD000000007400002044590008A1
:1001E00001F0FF01102A2BDB10F0070F08D010F8E8
:1001F000013B013A8B422DD010F0070F42B3F6D1EC
:10020000F0B441EA012141EA014122F007047FF004
:1002100000070023F0E80256083C85EA010586EA5B
:10022000010685FA47F5A3FA87F586FA47F6A5FA97
:1002300087F68EB9EED1F0BC01F0FF0102F00702A3
:1002400032B110F8013B013A83EA010313B1F8D14E
:100250000020704701387047002D06BF354603382F
:10026000073815F0010F07D1013015F4807F02BF68
:10027000013015F4C03F0130F0BC0138704700BFB9
:1002800081F0004102E000BF83F0004330B54FEA47
:1002900041044FEA430594EA050F08BF90EA020FB4
:1002A0001FBF54EA000C55EA020C7FEA645C7FEA47
:1002B000655C00F0E2804FEA5454D4EB5555B8BF6A
:1002C0006D420CDD2C4480EA020281EA030382EADB
:1002D000000083EA010180EA020281EA0303362D6D
:1002E00088BF30BD11F0004F4FEA01314FF4801C40
:1002F0004CEA113102D0404261EB410113F0004F52
:100300004FEA03334CEA133302D0524263EB430308
:1003100094EA050F00F0A780A4F10104D5F1200EA6
:100320000DDB02FA0EFC22FA05F2801841F1000101
:1003300003FA0EF2801843FA05F359410EE0A5F1D5
:1003400020050EF1200E012A03FA0EFC28BF4CF006
:10035000020C43FA05F3C01851EBE37101F00045BC
:1003600007D54FF0000EDCF1000C7EEB00006EEBC9
:100370000101B1F5801F1BD3B1F5001F0CD3490853
:100380005FEA30004FEA3C0C04F101044FEA4452AA
:1003900012F5800F80F09A80BCF1004F08BF5FEA31
:1003A000500C50F1000041EB045141EA050130BD11
:1003B0005FEA4C0C404141EB0101013C28BFB1F523
:1003C000801FE9D291F0000F04BF01460020B1FA6E
:1003D00081F308BF2033A3F10B03B3F120020CDA41
:1003E0000C3208DD02F1140CC2F10C0201FA0CF01F
:1003F00021FA02F10CE002F11402D8BFC2F1200C84
:1004000001FA02F120FA0CFCDCBF41EA0C01904039
:10041000E41AA2BF01EB0451294330BD6FEA040482
:100420001F3C1CDA0C340EDC04F11404C4F120026D
:1004300020FA04F001FA02F340EA030021FA04F37F
:1004400045EA030130BDC4F10C04C4F1200220FAD6
:1004500002F001FA04F340EA0300294630BD21FA14
:1004600004F0294630BD94F0000F83F4801306BFDA
:1004700081F480110134013D4EE77FEA645C18BFCE
:100480007FEA655C29D094EA050F08BF90EA020F65
:1004900005D054EA000C04BF1946104630BD91EA5D
:1004A000030F1EBF0021002030BD5FEA545C05D160
:1004B0004000494128BF41F0004130BD14F580049F
:1004C0003CBF01F5801130BD01F0004545F0FE4113
:1004D00041F470014FF0000030BD7FEA645C1ABF48
:1004E000194610467FEA655C1CBF0B46024650EA7F
:1004F000013406BF52EA033591EA030F41F40021AB
:1005000030BD00BF90F0000F04BF0021704730B530
:100510004FF4806404F132044FF000054FF0000105
:1005200050E700BF90F0000F04BF0021704730B5C6
:100530004FF4806404F1320410F0004548BF40429B
:100540004FF000013EE700BF42004FEAE2014FEAF0
:1005500031014FEA02701FBF12F07F4393F07F4FCB
:1005600081F06051704732F07F4208BF704793F0CE
:100570007F4F04BF41F40021704730B54FF46074E1
:1005800001F0004521F000411CE700BF50EA0102E4
:1005900008BF704730B54FF000050AE050EA01028D
:1005A00008BF704730B511F0004502D5404261EBFD
:1005B00041014FF4806404F132045FEA915C3FF43E
:1005C000D8AE4FF003025FEADC0C18BF03325FEADB
:1005D000DC0C18BF033202EBDC02C2F1200300FA8C
:1005E00003FC20FA02F001FA03FE40EA0E0021FAB1
:1005F00002F11444BDE600BF70B54FF0FF0C4CF49F
:10060000E06C1CEA11541DBF1CEA135594EA0C0F50
:1006100095EA0C0F00F0DEF82C4481EA030621EA8B
:100620004C5123EA4C5350EA013518BF52EA0335C6
:1006300041F4801143F4801338D0A0FB02CE4FF078
:100640000005E1FB02E506F00042E0FB03E54FF0A8
:100650000006E1FB03569CF0000F18BF4EF0010EA0
:10066000A4F1FF04B6F5007F64F5407404D25FEA9C
:100670004E0E6D4146EB060642EAC62141EA55514F
:100680004FEAC52040EA5E504FEACE2EB4F1FD0C91
:1006900088BFBCF5E06F1ED8BEF1004F08BF5FEA0F
:1006A000500E50F1000041EB045170BD06F00046C1
:1006B00046EA010140EA020081EA0301B4EB5C046E
:1006C000C2BFD4EB0C0541EA045170BD41F4801166
:1006D0004FF0000E013C00F3AB8014F1360FDEBF8B
:1006E000002001F0004170BDC4F10004203C35DA67
:1006F0000C341BDC04F11404C4F1200500FA05F3EA
:1007000020FA04F001FA05F240EA020001F000428A
:1007100021F0004110EBD37021FA04F642EB060100
:100720005EEA430E08BF20EAD37070BDC4F10C042A
:10073000C4F1200500FA04F320FA05F001FA04F2EE
:1007400040EA020001F0004110EBD37041F10001DA
:100750005EEA430E08BF20EAD37070BDC4F12005E5
:1007600000FA05F24EEA020E20FA04F301FA05F24D
:1007700043EA020321FA04F001F0004121FA04F2F5
:1007800020EA020000EBD3705EEA430E08BF20EAC5
:10079000D37070BD94F0000F0FD101F000464000FF
:1007A00041EB010111F4801F08BF013CF7D041EA81
:1007B000060195F0000F18BF704703F00046520085
:1007C00043EB030313F4801F08BF013DF7D043EA56
:1007D0000603704794EA0C0F0CEA135518BF95EA0C
:1007E0000C0F0CD050EA410618BF52EA4306D1D193
:1007F00081EA030101F000414FF0000070BD50EAB2
:10080000410606BF1046194652EA430619D094EA3B
:100810000C0F02D150EA013613D195EA0C0F05D125
:1008200052EA03361CBF104619460AD181EA030179
:1008300001F0004141F0FE4141F470014FF0000031
:1008400070BD41F0FE4141F4780170BD70B54FF0CC
:10085000FF0C4CF4E06C1CEA11541DBF1CEA13554C
:1008600094EA0C0F95EA0C0F00F0A7F8A4EB05042E
:1008700081EA030E52EA03354FEA013100F0888025
:100880004FEA03334FF0805545EA131343EA1263EE
:100890004FEA022245EA111545EA10654FEA0026A3
:1008A0000EF000419D4208BF964244F1FD0404F55C
:1008B000407402D25B084FEA3202B61A65EB0305B8
:1008C0005B084FEA32024FF480104FF4002CB6EB75
:1008D000020E75EB030E22BFB61A754640EA0C00F5
:1008E0005B084FEA3202B6EB020E75EB030E22BF35
:1008F000B61A754640EA5C005B084FEA3202B6EB76
:10090000020E75EB030E22BFB61A754640EA9C0034
:100910005B084FEA3202B6EB020E75EB030E22BF04
:10092000B61A754640EADC0055EA060E18D04FEAC2
:10093000051545EA16754FEA06164FEAC30343EA62
:1009400052734FEAC2025FEA1C1CC0D111F4801F2F
:100950000BD141EA00014FF000004FF0004CB6E728
:1009600011F4801F04BF01430020B4F1FD0C88BFC7
:10097000BCF5E06F3FF6AFAEB5EB030C04BFB6EBD2
:10098000020C5FEA500C50F1000041EB045170BDC5
:100990000EF0004E4EEA113114EB5C04C2BFD4EBF2
:1009A0000C0541EA045170BD41F480114FF0000E76
:1009B000013C90E645EA060E8DE60CEA135594EAF2
:1009C0000C0F08BF95EA0C0F3FF43BAF94EA0C0FF5
:1009D0000AD150EA01347FF434AF95EA0C0F7FF46A
:1009E00025AF104619462CE795EA0C0F06D152EABE
:1009F00003353FF4FDAE1046194622E750EA4106A2
:100A000018BF52EA43067FF4C5AE50EA41047FF4B2
:100A10000DAF52EA43057FF4EBAE12E74FF0FF3C17
:100A200006E000BF4FF0010C02E000BF4FF0010CE8
:100A30004DF804CD4FEA410C7FEA6C5C4FEA430C61
:100A400018BF7FEA6C5C1BD001B050EA410C0CBFB0
:100A500052EA430C91EA030F02BF90EA020F002012
:100A6000704710F1000F91EA030F58BF994208BF79
:100A700090422CBFD8176FEAE37040F00100704736
:100A80004FEA410C7FEA6C5C02D150EA013C07D18D
:100A90004FEA430C7FEA6C5CD6D152EA033CD3D0D8
:100AA0005DF8040B704700BF8446104662468C46D2
:100AB0001946634600E000BF01B5FFF7B7FF002805
:100AC00048BF10F1000F01BD4DF808EDFFF7F4FF2E
:100AD0000CBF012000205DF808FB00BF4DF808EDB9
:100AE000FFF7EAFF34BF012000205DF808FB00BFDC
:100AF0004DF808EDFFF7E0FF94BF012000205DF8FE
:100B000008FB00BF4DF808EDFFF7CEFF94BF0120B2
:100B100000205DF808FB00BF4DF808EDFFF7C4FFAB
:100B200034BF012000205DF808FB00BF4FEA4102FE
:100B300012F5001215D211D56FF47873B3EB62522F
:100B400012D94FEAC12343F0004343EA505311F056
:100B5000004F23FA02F018BF404270474FF00000E8
:100B6000704750EA013005D111F0004008BF6FF026
:100B7000004070474FF00000704700BF53B94AB9BA
:100B8000002908BF00281CBF4FF0FF314FF0FF3095
:100B900000F074B9ADF1080C6DE904CE00F006F870
:100BA000DDF804E0DDE9022304B070472DE9F047E9
:100BB000089D04468E46002B4DD18A42944669D941
:100BC000B2FA82F252B101FA02F3C2F1200120FA24
:100BD00001F10CFA02FC41EA030E94404FEA1C4872
:100BE000210CBEFBF8F61FFA8CF708FB16E341EA6E
:100BF000034306FB07F199420AD91CEB030306F1F4
:100C0000FF3080F01F81994240F21C81023E634414
:100C10005B1AA4B2B3FBF8F008FB103344EA0344B8
:100C200000FB07F7A7420AD91CEB040400F1FF33CD
:100C300080F00A81A74240F207816444023840EA0A
:100C40000640E41B00261DB1D4400023C5E9004343
:100C50003146BDE8F0878B4209D9002D00F0EF80C6
:100C60000026C5E9000130463146BDE8F087B3FAF9
:100C700083F6002E4AD18B4202D3824200F2F980E1
:100C8000841A61EB030301209E46002DE0D0C5E9E4
:100C9000004EDDE702B9FFDEB2FA82F2002A40F030
:100CA0009280A1EB0C014FEA1C471FFA8CFE012633
:100CB000200CB1FBF7F307FB131140EA01410EFBD7
:100CC00003F0884208D91CEB010103F1FF3802D27E
:100CD000884200F2CB804346091AA4B2B1FBF7F078
:100CE00007FB101144EA01440EFB00FEA64508D99B
:100CF0001CEB040400F1FF3102D2A64500F2BB80D8
:100D00000846A4EB0E0440EA03409CE7C6F1200726
:100D1000B34022FA07FC4CEA030C20FA07F401FA6C
:100D200006F31C43F9404FEA1C4900FA06F3B1FBF5
:100D3000F9F8200C1FFA8CFE09FB181140EA01415A
:100D400008FB0EF0884202FA06F20BD91CEB0101F7
:100D500008F1FF3A80F08880884240F28580A8F14F
:100D600002086144091AA4B2B1FBF9F009FB1011A1
:100D700044EA014100FB0EFE8E4508D91CEB01013F
:100D800000F1FF346CD28E456AD90238614440EAE2
:100D90000840A0FB0294A1EB0E01A142C846A64662
:100DA00056D353D05DB1B3EB080261EB0E0101FAEB
:100DB00007F722FA06F3F1401F43C5E90071002648
:100DC0003146BDE8F087C2F12003D8400CFA02FC9E
:100DD00021FA03F3914001434FEA1C471FFA8CFEAE
:100DE000B3FBF7F007FB10360B0C43EA064300FB9E
:100DF0000EF69E4204FA02F408D91CEB030300F13C
:100E0000FF382FD29E422DD9023863449B1B89B2F2
:100E1000B3FBF7F607FB163341EA034106FB0EF37B
:100E20008B4208D91CEB010106F1FF3816D28B4228
:100E300014D9023E6144C91A46EA004638E72E46F4
:100E4000284605E70646E3E61846F8E64B45A9D2EC
:100E5000B9EB020864EB0C0E0138A3E74646EAE75B
:100E6000204694E74046D1E7D0467BE7023B614409
:100E700032E7304609E76444023842E7704700BF72
:100E800030B595B03022002108A802F0DFF9002427
:100E9000039404940594069407940194194B1A6CD6
:100EA00042F080521A641B6C03F080530193019B43
:100EB0000294154B1A6842F440421A601B6803F40E
:100EC00040430293029B0225089501230B931023B4
:100ED0000C930E950F941093C8231193129504232D
:100EE000139308A801F098FB0F230393049505942E
:100EF0004FF4C05306930793032103A801F0DAFDD2
:100F000015B030BD003802400070004010B504211B
:100F1000142001F0ADF82F4B1B68032B42D8DFE8FB
:100F200003F002172C422C4A0021084601F05EF81B
:100F30002A4A0121002001F059F8294A0221002003
:100F400001F054F8274A0321002001F04FF829E06E
:100F5000254A0021084601F049F8244C2246012187
:100F6000002001F043F822460221002001F03EF863
:100F700022460321002001F039F81D4A00210846CD
:100F800001F034F8194C22460121002001F02EF81E
:100F900022460221002001F029F8224603210020E8
:100FA00001F024F810BD134A0021084601F01EF894
:100FB0000E4C22460121002001F018F822460221A1
:100FC000002001F013F822460321002001F00EF862
:100FD000E8E700BFAC01002060590008785900081C
:100FE00090590008A8590008C0590008D8590008AD
:100FF000F0590008085A000830B595B03022002199
:1010000008A802F023F9002403940494059406949C
:10101000079401941A4B1A6C42F080521A641B6CAC
:1010200003F080530193019B0294164B1A6842F41B
:1010300040421A601B6803F440430293029B02255E
:10104000089501230B9314230C930E950F941023F2
:101050001093C823119312950423139308A801F049
:10106000DBFA0F230393049505944FF4C0530693C2
:101070000793032103A801F01DFD15B030BD00BF8B
:1010800000380240007000402DE980488BB001F02C
:1010900029F9FFF7F5FEFFF7AFFF0024059406944A
:1010A0000794089409940094BB4B1A6B42F0040215
:1010B0001A631A6B02F004020092009A01941A6BF0
:1010C00042F001021A631A6B02F001020192019AC6
:1010D00002941A6B42F002021A631B6B03F00203C4
:1010E0000293029BAD4D22464FF44051284601F039
:1010F0007DFADFF80C83224643F28401404601F07A
:1011000075FA4FF440530593012606960794089408
:1011100005A9284601F07EF9082305934FF44413EE
:101120000693079405A9284601F074F92023059336
:101130004FF404170697079605A9994801F06AF934
:1011400043F28403059306960794089405A9404644
:1011500001F060F94FF4806305930697079405A9A1
:10116000284601F057F922460321092001F0E6F84C
:10117000092001F019F922462146172001F0DEF876
:10118000172001F011F922462146282001F0D6F857
:10119000282001F009F90594069407940894039413
:1011A0000494804E4FF08043336019237360B46021
:1011B0007D4BF36034614FF08009C6F818903046DB
:1011C00001F0C2FE4FF48058CDF8148005A93046D6
:1011D00001F0F3FE0394049403A9304601F0A2FF4A
:1011E0000594069407940894039404946F4D704BEF
:1011F0002B6046F2A8176F60AC6040F2CF73EB60D3
:101200002C61C5F81890284601F09EFECDF8148098
:1012100005A9284601F0D1FE0394049403A92846A9
:1012200001F080FF6348644B0360476084604FF6C1
:10123000FF73C3600461846101F086FE092001F040
:10124000C1F8282001F0BEF80421142000F010FF9E
:101250005A4B1C605A4B1C605A4B1C70304601F0B4
:10126000E1FC284601F014FD9FED578ADFED578A17
:101270009FED579ADFED579A75E3574BD3F80080EF
:10128000B8F1000F1DD007EE908AF8EE677A87EE6E
:10129000A97AF7EE006AC6EE877A504BC3ED007A62
:1012A0004FF0000E4E4BD3F800A04E4BD3F800B0D9
:1012B0004D494E4A4E4D4F4C4F487346F146F44609
:1012C00012E0F0EE487AE8E785ED008A84ED008AC6
:1012D00080ED008A41F804CC42F804CC0133043597
:1012E000043404300C2B30D051F8046B52F8047BDA
:1012F000BE42E9D3002EE7D0002FE5D007EE908A5A
:10130000F8EE676A07EE906AB8EE677A76EEC75A2B
:10131000C5EEA67A67EEA87AC5ED007A07EE907A58
:10132000F8EE677A77EE677A87EEA67A27EE287A64
:1013300084ED007A87EE897A80ED007AA8EB060BBF
:101340009A464FF00109CE46C4E72C4B0C221A6096
:10135000BEF1000F02D0224BC3F800A0B9F1000F7C
:1013600002D0204BC3F800B0154B01221A60154B78
:1013700000221A7020210A4801F032F9012840F0B9
:10138000FC820E4B1B68032B00F2F782DFE813F0A0
:101390003A0095006401250200380240000802402E
:1013A00000000240040200203F420F004C020020D7
:1013B00000040040BC01002000480140AC010020B6
:1013C000B00100209C010020000000000000B44398
:1013D00000007A44C0E1644CB8010020A80100205C
:1013E000C000002098020020F800002060010020CA
:1013F0008C000020C40000202C010020940200205A
:101400000004024000F0D8FDFFF780FD8B4C8C4BB0
:101410001868FFF799F841EC100B2146052001F000
:10142000BFFE22460121062000F0E0FD854B1A6830
:10143000854B03EB8203D3ED007AF5EEC07AF1EE33
:1014400010FA2EDD17EE900AFFF77EF841EC100B34
:101450002146042001F0A4FE224602210D2000F0C6
:10146000C5FD784B1A68794B03EB8203D3ED007A04
:10147000F5EEC07AF1EE10FA19DD704C17EE900A15
:10148000FFF762F841EC100B2146042001F088FEC2
:10149000224603210B2000F0A9FD6D4B03221A60A8
:1014A00061E26C4A02210D2000F0A0FDD9E7694AF3
:1014B00003210B2000F09AFDEFE700F07DFDFFF720
:1014C00025FD5E4C5E4B1868FFF73EF841EC100BB3
:1014D0002146052001F064FE224600210E2000F086
:1014E00085FD5A4D2868FFF72FF841EC100B214677
:1014F000032001F055FE22460121002000F076FD78
:101500006868FFF721F841EC100B2146032001F039
:1015100047FE22460121042000F068FDA868FFF77D
:1015200013F841EC100B2146032001F039FE22464E
:101530000121092000F05AFDE868FFF705F841ECA9
:10154000100B2146032001F02BFE224601210E2024
:1015500000F04CFD2869FEF7F7FF41EC100B214627
:10156000032001F01DFE22460221002000F03EFD76
:101570006869FEF7E9FF41EC100B2146032001F0FA
:101580000FFE22460221042000F030FDA869FEF77C
:10159000DBFF41EC100B2146032001F001FE224647
:1015A0000221092000F022FDE869FEF7CDFF41ECA1
:1015B000100B2146032001F0F3FD224602210E20EC
:1015C00000F014FD286AFEF7BFFF41EC100B214626
:1015D000032001F0E5FD22460321002000F006FD76
:1015E000686AFEF7B1FF41EC100B2146032001F0C1
:1015F000D7FD22460321042000F0F8FCA86AFEF77C
:10160000A3FF41EC100B2146032001F0C9FD224647
:101610000321092000F0EAFCE86AFEF795FF41EC9F
:10162000100B2146032001F0BBFD224603210E20B2
:1016300000F0DCFC064B03221A6094E1A0010020BC
:10164000A8010020C00000208C000020C400002061
:10165000B0010020205A000800F0AEFCFFF756FC55
:10166000C84CC94B1868FEF76FFF41EC100B2146C0
:10167000052001F095FD224600210E2000F0B6FC69
:10168000C24D2868FEF760FF41EC100B2146032095
:1016900001F086FD22460121002000F0A7FC6868C9
:1016A000FEF752FF41EC100B2146032001F078FDBC
:1016B00022460121042000F099FCA868FEF744FFAF
:1016C00041EC100B2146032001F06AFD2246012166
:1016D000092000F08BFCE868FEF736FF41EC100BA8
:1016E0002146032001F05CFD224601210E2000F07E
:1016F0007DFC2869FEF728FF41EC100B21460320F2
:1017000001F04EFD22460221002000F06FFC6869C6
:10171000FEF71AFF41EC100B2146032001F040FDBB
:1017200022460221042000F061FCA869FEF70CFFAC
:1017300041EC100B2146032001F032FD224602212C
:10174000092000F053FCE869FEF7FEFE41EC100BA7
:101750002146032001F024FD224602210E2000F044
:1017600045FC286AFEF7F0FE41EC100B21460320F1
:1017700001F016FD22460321002000F037FC686AC4
:10178000FEF7E2FE41EC100B2146032001F008FDBC
:1017900022460321042000F029FCA86AFEF7D4FEAB
:1017A00041EC100B2146032001F0FAFC22460321F4
:1017B000092000F01BFCE86AFEF7C6FE41EC100BA6
:1017C0002146032001F0ECFC224603210E2000F00C
:1017D0000DFC6F4B03221A60C5E000F0EDFBFFF734
:1017E00095FB684C684B1868FEF7AEFE41EC100B99
:1017F0002146052001F0D4FC224600210E2000F0F5
:10180000F5FB644D2868FEF79FFE41EC100B214666
:10181000032001F0C5FC22460121002000F0E6FB78
:101820006868FEF791FE41EC100B2146032001F0A1
:10183000B7FC22460121042000F0D8FBA868FEF77F
:1018400083FE41EC100B2146032001F0A9FC224647
:101850000121092000F0CAFBE868FEF775FE41ECA3
:10186000100B2146032001F09BFC224601210E2093
:1018700000F0BCFB2869FEF767FE41EC100B214627
:10188000032001F08DFC22460221002000F0AEFB77
:101890006869FEF759FE41EC100B2146032001F068
:1018A0007FFC22460221042000F0A0FBA869FEF77D
:1018B0004BFE41EC100B2146032001F071FC224647
:1018C0000221092000F092FBE869FEF73DFE41ECA1
:1018D000100B2146032001F063FC224602210E205A
:1018E00000F084FB286AFEF72FFE41EC100B214626
:1018F000032001F055FC22460321002000F076FB76
:10190000686AFEF721FE41EC100B2146032001F02E
:1019100047FC22460321042000F068FBA86AFEF77A
:1019200013FE41EC100B2146032001F039FC224646
:101930000321092000F05AFBE86AFEF705FE41EC9E
:10194000100B2146032001F02BFC224603210E2020
:1019500000F04CFB0E4B03221A6004E0FFF7D6FAAE
:101960000B4B03221A600C4B1B78012B3FF485AC08
:10197000074B1B68012B3FF4FDAC054B1B68002B8C
:10198000F1D1EBE7A0010020A80100202C010020EC
:10199000B00100208C0000209C01002082B00021BA
:1019A00000910B4B5A6C42F480425A645A6C02F418
:1019B00080420092009A01911A6C42F080521A649F
:1019C0001B6C03F080530193019B02B0704700BF72
:1019D0000038024000B585B00368B3F1804F08D0ED
:1019E0001F4A93421AD01F4A93422BD005B05DF88C
:1019F00004FB0022019203F50E33196C41F0010142
:101A000019641B6C03F001030193019B02211C204C
:101A100000F094FC1C2000F0C7FCE7E700220292D3
:101A2000114B196C41F0020119641B6C03F00203A5
:101A30000293029B01211D2000F080FC1D2000F07C
:101A4000B3FCD3E700230393074B5A6C42F4802284
:101A50005A645B6C03F480230393039BC6E700BFC7
:101A60000004004000480140003802407047FEE793
:101A7000FEE7FEE7FEE770477047704708B500F0E5
:101A800035F908BD10B5082000F0B8FD134B1B68F0
:101A90005C6A642C00D810BD0821114800F0A0FD3C
:101AA00070B9104B1B68A4F138020F4941F823208C
:101AB0000B2B02D801330B4A13600C4B1C60EAE776
:101AC0000B4B1B68A4F113020A4941F823200B2B8E
:101AD000F3D80133064A1360EFE700BF0402002089
:101AE0000008024094010020F80000209C02002021
:101AF000980100206001002008B5202000F07EFD44
:101B0000074B1B680133032B02D8054A136002E020
:101B1000034B00221A60034B01221A6008BD00BF6C
:101B2000AC010020B001002008B5024801F0F1F836
:101B300008BD00BF0402002008B50A4B1B6863B94A
:101B4000094B00221A60282000F02EFC054B0022D1
:101B50001A60064801F0DDF808BD282000F024FCDA
:101B6000F1E700BFB4010020B00100204C020020CA
:101B700008B54FF4806000F041FD134B1A68536ABA
:101B8000A3F29F2311490B6000235362104A13688C
:101B900001331360032B04D00D4B1B68022B0AD0BA
:101BA00008BD282000F00EFC092000F00BFC094BBA
:101BB00001221A70F0E70023074A1360074A1360F6
:101BC000092000F0F1FBEBE704020020B80100203F
:101BD000B40100209C010020980100209401002005
:101BE0000120704708B501F0FFFA162303604FF09B
:101BF000FF3008BD08B501F0F7FA16230360FEE7D1
:101C000070B5161E07DD0C468D19AFF3008004F881
:101C1000010BA542F9D1304670BD70B5161E07DD27
:101C20000C468D1914F8010BAFF30080A542F9D1D1
:101C3000304670BD4FF0FF3070474FF400534B609B
:101C400000207047012070470020704708B5034608
:101C50000B4A126842B10A4A106803446A4693422A
:101C600006D8074A136008BD054A06491160F2E725
:101C700001F0BAFA0C2303604FF0FF30F3E700BF26
:101C8000A0020020F8020020054BD3F8882042F47F
:101C90007002C3F888204FF000629A60704700BF5E
:101CA00000ED00E00F4BD3F8FC2022F08072C3F867
:101CB000FC20D3F8FC2042F08072C3F8FC20A3F58E
:101CC0005D431A6822F001021A601A6842F00102AC
:101CD0001A6000225A605A6800BF00BF5868801A14
:101CE000704700BF00ED00E07047000070B5204A6B
:101CF0001368013313601F4B1B681BB11D4A136827
:101D0000013B13601C4B1B78002B2ED000241A4E75
:101D100015E0C3680169984706EB85056B685A684A
:101D20009A606B681A7812F0010F03D11A786FF37A
:101D300041021A7001343278E3B29A4215D9E5B201
:101D400006EB850358680028F4D0037813F0020FDF
:101D5000F0D08368002BDCD0013B836006EB850369
:101D600058688368002BE5D1D3E7FFF7BDFF70BD4E
:101D7000BC020020C0020020A4020020014B186811
:101D8000704700BFBC020020064A116B00F13F40C3
:101D900000F57E00C0F38F20012303FA00F0084312
:101DA00010637047003802402DE9F04F85B092462D
:101DB00002939DF838B09DF83C30039300F13F4703
:101DC00007F57E070023C7F38727234A0AF1FF346C
:101DD000E4B20191A14602E00133102B39D0019CFD
:101DE0001C4114F0010FF7D0012404FA03F632F875
:101DF0001740344322F81740C4685D004FF0030CCD
:101E00000CFA05FC6FEA0C0E24EA0C040BFA05F838
:101E100044EA0804C460046824EA0C0C0AFA05F4D5
:101E20004CEA04040460B9F1010FD5D84468B6B295
:101E300024EA0606029C9C40A4B2264346608468BD
:101E40000EEA040E039901FA05F54EEA05058560D0
:101E5000C2E705B0BDE8F08FC402002001B97047A9
:101E6000F0B583B0064614461D460F46FFF78CFFBB
:101E70009DF8243001939DF8203000932B46224694
:101E800039463046FFF790FF03B0F0BD38B510F08B
:101E9000080F254B14BF4FF400524FF000529A61C7
:101EA00010F0040F204B14BF4FF480524FF08052BB
:101EB0009A6110F0020F1D4B14BF4FF400524FF007
:101EC00000529A6110F0010F184B14BF4FF480526A
:101ED0004FF080529A61144B80229A611424144B63
:101EE0005D6800F099FE134BA3FB00239B0C03FBE2
:101EF00004F40F4A53685B1BA342FBD30A4B4FF415
:101F000000029A6114240A4B5D6800F085FE094BBB
:101F1000A3FB00239B0C03FB04F4054A53685B1BE3
:101F2000A342FBD338BD00BF0004024000080240BA
:101F3000001000E083DE1B4310B50446054B4FF450
:101F400080229A610009FFF7A1FF04F00F00FFF75C
:101F50009DFF10BD0004024000B583B00C4B0193FF
:101F60000C4BDB788B4298BF00210A4B587199715A
:101F700001F108030DEB030111F8043C184460F073
:101F80007F00C0B2FFF7D8FF03B05DF804FB00BFCD
:101F900000401454E002002010B50446054B042212
:101FA0009A61D040FFF772FF04F00F00FFF76EFF59
:101FB00010BD00BF0004024038B50120FFF7BCFF90
:101FC00040F6B834074B5D6800F026FE064BA3FBD5
:101FD00000239B0C03FB04F4024A53685B1BA342DF
:101FE000FBD338BD001000E083DE1B4370B51546FF
:101FF000FFF7B2FF2B784BB3154C002617E0667144
:10200000A1790131C9B2A1713046FFF7A5FF12E0F5
:10201000A1790131C9B2A1716079FFF79DFF03E099
:10202000A1793046FFF798FF15F8013F73B1627947
:1020300023799A42E3D228780A28E9D00D28EFD0F4
:10204000FFF7AAFF637901336371EDE770BD00BF4D
:10205000E002002008B5054B187840F004021A7021
:1020600040F00C00FFF768FF08BD00BFE002002051
:102070002DE9F04182B007460E46FFF713FE6C4D86
:102080000024019400942346012204212846FFF7EE
:10209000E5FE019400942346012280212846FFF7A3
:1020A000DDFEDFF89C8101940094234601224FF469
:1020B00080514046FFF7D2FE01940094234601224E
:1020C0004FF400514046FFF7C9FE019400942346A7
:1020D00001224FF480512846FFF7C0FE019400947E
:1020E000234601224FF400512846FFF7B7FE4FF474
:1020F0008023AB614FF40003AB614FF08052C8F80E
:1021000018204FF00053C8F81830AA61AB614AF6A6
:10211000C874484B5D6800F07FFD474BA3FB00236C
:102120009B0C03FB04F4434A53685B1BA342FBD3A1
:10213000424BDE701F7100225A719A71012E84BFCA
:102140003E4B08225A700320FFF7A0FE41F2941480
:10215000384B5D6800F060FD374BA3FB00239B0C00
:1021600003FB04F4334A53685B1BA342FBD30320F5
:10217000FFF78CFE41F294142E4B5D6800F04CFD8D
:102180002D4BA3FB00239B0C03FB04F4294A53684B
:102190005B1BA342FBD30320FFF778FE41F29414AC
:1021A000244B5D6800F038FD234BA3FB00239B0C00
:1021B00003FB04F41F4A53685B1BA342FBD30220BA
:1021C000FFF764FE64241B4B5D6800F025FD1A4B8D
:1021D000A3FB00239B0C03FB04F4164A53685B1B10
:1021E000A342FBD3154C607840F02000FFF7A4FE1B
:1021F00004232370FFF72EFFFFF7DEFE0223A370F8
:102200000620FFF799FE41F294140A4B5D6800F036
:1022100003FD094BA3FB00239B0C03FB04F4054ABD
:1022200053685B1BA342FBD302B0BDE8F08100BF43
:1022300000040240001000E083DE1B43E0020020A7
:1022400000080240DFF834D0002103E00C4B5B585B
:10225000435004310B480C4B42189A42F6D30B4AB8
:1022600002E0002342F8043B094B9A42F9D3FFF7FE
:102270000BFD00F0BFFFFEF707FF704700000220D4
:10228000085D0008000000207000002070000020A1
:10229000F8020020FEE7000010B504460E4B187847
:1022A0004FF47A73B3FBF0F30C4A1068B0FBF3F011
:1022B00000F09CF868B90F2C01D901200AE0002237
:1022C00021464FF0FF3000F039F8054B1C6000202C
:1022D00000E0012010BD00BF04000020000000202D
:1022E0000800002008B50B4B1A6842F400721A600F
:1022F0001A6842F480621A601A6842F480721A60A6
:10230000032000F009F80020FFF7C6FFFFF746FBA7
:10231000002008BD003C02400749CA68030203F4DC
:10232000E06322F4E0621204120C134343F0BF6333
:1023300043F40033CB60704700ED00E000B5184B6C
:10234000DB68C3F30223C3F1070CBCF1040F28BF01
:102350004FF0040C03F1040EBEF1060F8CBF033BDB
:1023600000234FF0FF3E0EFA0CFC21EA0C019940CD
:102370000EFA03F322EA03021143002809DB0901E4
:10238000C9B200F1604000F5614080F800135DF8CB
:1023900004FB00F00F000901C9B2024B1954F6E723
:1023A00000ED00E014ED00E0002808DB420900F039
:1023B0001F00012303FA00F0014B43F8220070478D
:1023C00000E100E000280DDB430900F01F000122BE
:1023D00002FA00F02033044A42F82300BFF34F8F83
:1023E000BFF36F8F704700BF00E100E00138B0F12C
:1023F000807F0BD24FF0E0235861054AF02182F82C
:1024000023100020986107221A617047012070474D
:1024100000ED00E02DE9F04F83B0002213464FF0AD
:10242000010E0325DFF8B4816A4C4BE0876805FA9A
:1024300002FA27EA0A0ACF68974047EA0A07876044
:10244000476827EA0C0C4F68C7F300179F4047EA1C
:102450000C07476044E04FF0000C0CFA0BFC4CEA10
:102460000A0CC7F808C0A7686FEA090C4E6816F492
:10247000801F0CBF0CEA070749EA0707A760E76857
:102480004E6816F4001F0CBF0CEA070749EA07075D
:10249000E76067684E6816F4003F0CBF0CEA070758
:1024A00049EA0707676027684E6816F4803F0CBF4B
:1024B0000CEA070749EA0707276001330232102BAD
:1024C00000F085800EFA03FC0F680CEA07093CEA6D
:1024D0000706F2D14F6807F00307013F012FA5D986
:1024E0004F6807F00307032F24D0C76805FA02FCE2
:1024F00027EA0C0C8F68974047EA0C07C7604F68C3
:1025000007F00307022F15D14FEAD30C00EB8C0C18
:10251000DCF820A003F007074FEA870B0F2707FA24
:102520000BF72AEA070A0F6907FA0BF747EA0A07C7
:10253000CCF82070076805FA02FC27EA0C0C4F68FB
:1025400007F00307974047EA0C0707604F6817F446
:10255000403FB2D0002701971F4E776C47F4804769
:102560007764776C07F480470197019F23F0030796
:1025700007F1804707F59C37D7F808A003F0030C54
:102580004FEA8C0B4FF00F0C0CFA0BFC2AEA0C0AEA
:1025900040453FF460AFA6F55056B04210D006F566
:1025A0008066B0420ED006F58066B0420DD006F5CA
:1025B0008066B0420CBF4FF0040C4FF0070C4CE7A4
:1025C000F4464AE74FF0020C47E7AC4645E703B054
:1025D000BDE8F08F003C014000380240000002409E
:1025E0000369194214BF0120002070470AB18161BC
:1025F00070470904816170477047000008B5054BBA
:102600005B69034200D108BD024B5861FFF7F4FF3C
:10261000F9E700BF003C0140002800F0E1812DE90E
:10262000F04182B00446036813F0010F3BD09F4B8A
:102630009B6803F00C03042B2CD09C4B9B6803F08D
:102640000C03082B21D06368B3F5803F4FD0B3F55E
:10265000A02F52D0954B1A6822F480321A601A6863
:1026600022F480221A606368002B50D0FFF786FBAB
:1026700005468E4E336813F4003F14D1FFF77EFBFE
:10268000401B6428F6D90320B1E1884B5B6813F442
:10269000800FD8D0854B1B6813F4003F03D06368CC
:1026A000002B00F09F81236813F0020F54D07F4B62
:1026B0009B6813F00C0F3ED07C4B9B6803F00C031F
:1026C000082B33D0E368002B68D0794B01221A60C5
:1026D000FFF754FB0546754E336813F0020F54D1D3
:1026E000FFF74CFB401B0228F6D903207FE16F4A1D
:1026F000136843F480331360B5E76C4B1A6842F4F7
:1027000080221A601A6842F480321A60ABE7FFF741
:1027100035FB0546654E336813F4003FC3D0FFF721
:102720002DFB401B6428F6D9032060E15F4B5B68FA
:1027300013F4800FC6D15D4B1B6813F0020F03D05A
:10274000E368012B40F05081584A1368216923F057
:10275000F80343EAC1031360236813F0080F42D063
:1027600063696BB3524B0122C3F8802EFFF706FB5F
:1027700005464E4E736F13F0020F34D1FFF7FEFA89
:10278000401B0228F6D9032031E1484A1368216929
:1027900023F0F80343EAC1031360DDE7444B002252
:1027A0001A60FFF7EBFA0546404E336813F0020F4C
:1027B000D2D0FFF7E3FA401B0228F6D9032016E136
:1027C0003B4B0022C3F8802EFFF7D8FA0546374E60
:1027D000736F13F0020F06D0FFF7D0FA401B0228E8
:1027E000F6D9032003E1236813F0040F76D02F4BB2
:1027F0001B6C13F0805F33D1002301932B4B1A6CB9
:1028000042F080521A641B6C03F080530193019BC9
:102810000125284B1B6813F4807F23D0A368012B6C
:1028200034D0052B38D0214B1A6F22F001021A67E1
:102830001A6F22F004021A67A368002B3CD0FFF73E
:102840009DFA0646194F41F288383B6F13F0020F8C
:1028500043D1FFF793FA801B4045F6D90320C6E029
:102860000025D6E7134A136843F480731360FFF71B
:1028700085FA06460F4F3B6813F4807FCED1FFF7F1
:102880007DFA801B0228F6D90320B0E0074A136FB7
:1028900043F001031367CFE7044B1A6F42F00402C1
:1028A0001A671A6F42F001021A67C5E70038024042
:1028B0000000474200700040FFF760FA0646524FA2
:1028C00041F288383B6F13F0020F06D0FFF756FA3B
:1028D000801B4045F6D9032089E0EDB9A369002BA0
:1028E00000F08480484A926802F00C02082A51D015
:1028F000022B17D0454B00221A66FFF73FFA044619
:10290000414D2B6813F0007F42D0FFF737FA001BD0
:102910000228F6D903206AE03B4A136C23F0805367
:102920001364DBE7394B00221A66FFF727FA0546E6
:10293000354E336813F0007F06D0FFF71FFA401BB7
:102940000228F6D9032052E0E369226A1343626A3F
:1029500043EA8213E26A43EA0263A26A5208013A36
:1029600043EA0243284A5360284B01221A66FFF7C4
:1029700005FA0446244D2B6813F0007F06D1FFF7BB
:10298000FDF9001B0228F6D9032030E000202EE0DC
:1029900000202CE0012B2DD01B4B5B6803F4800141
:1029A000E269914228D103F03F02216A8A4225D18F
:1029B000616A47F6C0721A40B2EB811F20D103F45E
:1029C0004031A26A5208013AB1EB024F1AD1E26AD1
:1029D00003F07063B3EB026F14BF0120002006E028
:1029E00001207047012002E0012000E0002002B039
:1029F000BDE8F0810120FAE70120F8E70120F6E7C1
:102A00000120F4E70120F2E70038024000004742CD
:102A100008B5254B9B6803F00C03042B3FD0082B13
:102A20003FD1214B5A6802F03F025B6813F4800FDC
:102A300012D01D4B5968C1F388111C480023A1FB1B
:102A40000001FEF79BF8184B5B68C3F301430133A9
:102A50005B00B0FBF3F025E0134B5968C1F3881C11
:102A60004FEA4C11B1EB0C006EEB0E0E4FEA8E13D9
:102A700043EA90638101091A63EB0E03DB0043EA2A
:102A80005173C90011EB0C0C43F1000399020023B0
:102A90004FEA8C2041EA9C51FEF770F8D3E70348D7
:102AA00000E0034808BD00BF0038024040787D01C7
:102AB0000024F400002800F09D802DE9F0410D462F
:102AC0000446504B1B6803F007038B4208D2CBB27D
:102AD0004C4A1370136803F007038B4240F08C805C
:102AE000236813F0020F17D013F0040F04D0464AE6
:102AF000936843F4E0539360236813F0080F04D005
:102B0000414A936843F4604393603F4A936823F0DB
:102B1000F003A1680B439360236813F0010F32D0D8
:102B20006268012A21D0931E012B25D9364B1B68E0
:102B300013F0020F62D034498B6823F00303134370
:102B40008B60FFF71BF906462F4F41F28838BB68B0
:102B500003F00C036268B3EB820F14D0FFF70EF999
:102B6000801B4045F3D9032042E0274B1B6813F438
:102B7000003FE0D101203BE0234B1B6813F0007FB6
:102B8000D9D1012034E01F4B1B6803F00703AB428F
:102B900007D9EAB21B4B1A701B6803F00703AB425C
:102BA0002ED1236813F0040F06D0174A936823F43C
:102BB000E053E1680B439360236813F0080F07D0DC
:102BC000114A9368216923F4604343EAC103936087
:102BD000FFF71EFF0C4B9B68C3F303130B4AD35C38
:102BE000D8400B4B18600B4B1868FFF755FB0020C3
:102BF000BDE8F081012070470120F9E70120F7E7E7
:102C00000120F5E7003C024000380240245A000849
:102C10000000002008000020014B1868704700BF2A
:102C20000000002090F83D30DBB2012B2AD10223B6
:102C300080F83D300368154A934218D0B3F1804FB5
:102C400015D0A2F57C42934211D002F580629342E6
:102C50000DD002F58062934209D002F59A32934278
:102C600005D01A6842F001021A60002070479A6885
:102C700002F00702062A07D01A6842F001021A6021
:102C8000002070470120704700207047000001407D
:102C900090F83D30DBB2012B2FD1022380F83D307C
:102CA0000268D36843F00103D3600368154A934276
:102CB00018D0B3F1804F15D0A2F57C42934211D0C9
:102CC00002F5806293420DD002F58062934209D0F2
:102CD00002F59A32934205D01A6842F001021A6056
:102CE000002070479A6802F00702062A07D01A6887
:102CF00042F001021A600020704701207047002056
:102D0000704700BF00000140704770477047704730
:102D1000704770B504460368DE681D6915F0020F40
:102D200010D016F0020F0DD06FF002021A610123CD
:102D3000037703689B6913F0030F5ED0FFF7E6FF8C
:102D40000023237715F0040F12D016F0040F0FD0D4
:102D500023686FF004021A610223237723689B69BA
:102D600013F4407F4FD02046FFF7D0FF0023237796
:102D700015F0080F12D016F0080F0FD023686FF06F
:102D800008021A61042323772368DB6913F0030F19
:102D900040D02046FFF7BAFF0023237715F0100F2D
:102DA00012D016F0100F0FD023686FF010021A61C6
:102DB000082323772368DB6913F4407F31D0204652
:102DC000FFF7A4FF0023237715F0010F02D016F0C0
:102DD000010F2DD115F0800F02D016F0800F2FD1EA
:102DE00015F0400F02D016F0400F31D115F0200F32
:102DF00002D016F0200F33D170BDFFF786FF2046BA
:102E0000FFF785FF9CE72046FFF77FFF2046FFF78F
:102E10007EFFABE72046FFF778FF2046FFF777FFFE
:102E2000BAE72046FFF771FF2046FFF770FFC9E7BA
:102E300023686FF001021A612046FFF765FFC9E7BA
:102E400023686FF080021A61204600F0A8F9C7E7F6
:102E500023686FF040021A612046FFF759FFC5E76B
:102E600023686FF020021A61204600F097F9C3E74B
:102E70000368344A904224D0B0F1804F40D0A2F58C
:102E80007C42904237D002F5806290422ED002F50B
:102E90008062904250D002F59A32904234D002F5CE
:102EA0008062904230D002F5806290422CD023F0B4
:102EB00080034A69134303608B68C3620B688362B3
:102EC0002FE023F070034A68134323F44073CA6869
:102ED000134323F080034A69134303608B68C36282
:102EE0000B6883620A69174B1A631AE023F07003B8
:102EF0004A68134308E023F070034A68134303E071
:102F000023F070034A68134323F44073CA681343E1
:102F100023F080034A69134303608B68C3620B6824
:102F2000836201234361036913F0010F09D0036930
:102F300023F001030361704723F070034A681343D1
:102F4000E2E770470000014040B310B5044690F836
:102F50003D30F3B1022384F83D30214651F8040B93
:102F6000FFF786FF012384F8463084F83E3084F86A
:102F70003F3084F8403084F8413084F8423084F89F
:102F8000433084F8443084F8453084F83D300020E4
:102F900010BD80F83C30FEF71DFDDBE701207047D7
:102FA00010B4846824F47F4C0A4342EA032242EAC4
:102FB0000C0282605DF8044B704790F83C30012BA6
:102FC00000F0AE8070B50446012380F83C30022347
:102FD00080F83D300268936823F47F4323F0770341
:102FE00093600B68602B60D03DD8402B79D01CD902
:102FF000502B36D103684868CD68196A1A6A22F0E6
:1030000001021A629A6922F0F00242EA051221F0E6
:103010000A0101439A6119622268936823F07003E0
:1030200043F057039360002012E0202B02D00BD90D
:10303000302B14D121688A6822F07002134343F0C8
:1030400007038B60002003E033F01002F2D0012070
:10305000012384F83D30002384F83C3070BD01200A
:10306000F6E70120F4E7B3F5805F55D0B3F5005FD4
:103070000CD1CB684A6889680068FFF791FF226825
:10308000936843F4804393600020E1E7702B45D1BF
:10309000CB684A6889680068FFF782FF22689368F6
:1030A00043F0770393600020D2E703684D68CE6851
:1030B0001A6A186A20F010001862996921F47041A8
:1030C00041EA063122F0A00242EA051299611A6231
:1030D0002268936823F0700343F067039360002035
:1030E000B6E703684868CD68196A1A6A22F00102D7
:1030F0001A629A6922F0F00242EA051221F00A01EE
:1031000001439A6119622268936823F0700343F0C7
:103110004703936000209BE7002099E7012097E791
:103120000220704790F83C30012B33D030B401239B
:1031300080F83C30022380F83D3004686368A26860
:1031400023F070030D682B4363600368124CA342A5
:1031500012D0B3F1804F0FD0A4F57C44A3420BD022
:1031600004F58064A34207D004F58064A34203D031
:1031700004F59A34A34204D122F0800249680A433C
:103180009A60012380F83D30002380F83C301846D7
:1031900030BC704702207047000001407047704704
:1031A00030B5002285B00C460546002351EC100BCB
:1031B0008DED020BFDF792FC9DED020B224618B13E
:1031C0002D2302F8013B013D0023064800932946C8
:1031D0006723006800F0ACF9002814BF20460020E7
:1031E00005B030BD0C000020014B1868704700BFCF
:1031F0000C00002070B50D4D0D4C641BA410002672
:10320000A64209D10B4D0C4C02F09CFB641BA41090
:103210000026A64205D170BD55F8043B98470136FB
:10322000EEE755F8043B98470136F2E7005D0008E9
:10323000005D0008005D0008045D0008024B0146C7
:10324000186800F077B800BF0C0000200244034665
:10325000934200D1704703F8011BF9E737B5002905
:1032600044D051F8043C0190002BA1F10404B8BFF4
:10327000E41800F01DFA1E4A0198136833B9636020
:10328000146003B0BDE8304000F018BAA34208D97A
:10329000256861198B4201BF19685B684919216073
:1032A000EDE71A465B680BB1A342FAD911685518CD
:1032B000A5420BD1246821445418A3421160E0D1E7
:1032C0001C685B68536021441160DAE702D90C2363
:1032D0000360D6E7256861198B4204BF19685B68F3
:1032E000636004BF491921605460CAE703B030BD70
:1032F000E802002070B50E4E0C463168054611B943
:1033000000F08CF830602146284600F087F8431C16
:103310000AD0C41C24F00304A04207D0211A284676
:1033200000F07CF8013001D14FF0FF34204670BD31
:10333000EC0200202DE9F041CD1C25F003050835F5
:103340000C2D38BF0C25002D074601DBA94205D9FD
:103350000C233B6000263046BDE8F0812E4E00F085
:10336000A7F933681C4634BB29463846FFF7C2FF2D
:10337000431C04464DD134682646002E40D12368B4
:103380003146384604EB030800F048F880453AD14E
:10339000216803356D1A25F0030508350C2D38BF5B
:1033A0000C2529463846FFF7A5FF01302BD02368AE
:1033B0002B4423600EE02268521B1ED40B2A16D920
:1033C0006119A342256018BF5960636808BF316066
:1033D00062514B60384604F10B0600F06FF926F09D
:1033E0000706231DF21AB6D09B1BA350B3E76268F1
:1033F000A3420CBF32605A60ECE723466468B2E730
:1034000034467668B9E70C233B60384600F056F93D
:10341000A1E72560DEE700BFE802002038B5064DD1
:103420000023044608462B60FEF710FC431C02D123
:103430002B6803B1236038BDF0020020F0B587B0DF
:1034400043EC102B0C9C9DF834600E9D04AB019353
:1034500003AB0093621C05AB0F46022100F0A0FDF8
:10346000059A42F20F739A4205D10146384600F0A0
:10347000E3FC07B0F0BD3B46017803F8011B002CCC
:10348000C8BF01252E2110F8017F0FB1002C37DCB9
:10349000672E46D0472E46D02E213020002C38DC17
:1034A000511E0029B8BFC2F1010218460591ACBFF8
:1034B0002B22059200F8026BA8BF5A70059ABCBF78
:1034C0002D215970632A0BDD642192FBF1F101F18A
:1034D0003004D81C9C706FF0630303FB012205923B
:1034E000059B0A2293FBF2F202F1300101706FF0AA
:1034F000090101FB02333033437000238370B8E7C6
:103500000DB103F8011B057803F8015B013C0025B0
:10351000B9E70DB103F8011B03F8010B013C0025CD
:10352000BCE76526BCE74526BAE7000000000000BE
:103530002DE9F04755EC104B88B081468846164679
:103540009A4610EE100A002200232946109FFDF72C
:10355000C5FA10B105F100431D46002200232046A4
:103560002946FDF7B1FA38B1302333700023737068
:10357000304608B0BDE8F0874BA3D3E900232046CE
:103580002946FDF7B5FA58B108F1FF310091CDE9B0
:1035900001A722462B4631464846FFF74FFFE7E793
:1035A000404600F015FC224651EC100B2B46FDF76F
:1035B0009FFA0028E8D107AB019306AB009342467F
:1035C00005AB45EC104B0221484600F0E9FC059A9A
:1035D00042F20F739A420ED03346B044054610F8BB
:1035E000011B059CA8EB030209B1002C08DC00219B
:1035F0004FF0300C0DE00146304600F01DFCB7E7FF
:10360000013C03F8011B0594E8E703F801CB013AFC
:103610000121002C20462ADC01B105940FB929783C
:1036200011B3B34204BF302103F8011B2E211970DE
:10363000059918460024A1EB030C4FF0300E1CEB4B
:10364000000F1CD40029C1F10000C8BF002000F108
:10365000010C6344014404B10591691E11F8010F86
:1036600008B1002A0FDCDFB900221A7080E7002AB7
:1036700004F1FF34C9DC0029D0D00590CEE700F872
:1036800001EF0124DBE703F8010B013AE6E701F85B
:10369000015B601A0028FADC002AA8BF9B18E3E748
:1036A00019469C183025F4E72D431CEBE2361A3FEF
:1036B000014801F076BA00BFF4020020014801F091
:1036C00071BA00BFF402002070B5466A04460D4688
:1036D00076B91020FFF7B2FD0246606220B9184BA0
:1036E0001848662100F0B0FBC0E901660660C660BC
:1036F000666AF36883B1636ADB6853F82500B8B97A
:10370000012101FA05F6721D9200204600F07EFBB1
:1037100060B1C0E901560EE021220421204600F0EC
:1037200075FB636AF060DB68002BE4D1002070BD9C
:10373000026843F825200023C0E90333F7E700BF00
:10374000385A00084F5A000870B5466A05460C46BC
:1037500076B91020FFF772FD0246686220B9094B66
:1037600009488A2100F070FBC0E901660660C66066
:103770003CB16B6A6268DB6853F82210216043F841
:10378000224070BD385A00084F5A00082DE9F04118
:103790000D6907460C461E4601F1140C0020DCF8AA
:1037A000003099B202FB01611E0C0B0C02FB0633C8
:1037B00089B2013001EB034185424CF8041B4FEA0A
:1037C0001346ECDC0EB3A368AB4219DC61683846E3
:1037D0000131FFF779FF804628B902460C4B0D48AE
:1037E000B52100F031FB2269023204F10C01920094
:1037F0000C3001F0D8F921463846FFF7A5FF4446C2
:1038000004EB850301355E6125612046BDE8F0814A
:10381000AB5A00084F5A0008030C1B04D3B900042C
:10382000102310F07F4F04BF0002083310F0704FD8
:1038300004BF0001043310F0404F04BF8000023386
:10384000002805DB10F0804F03F1010308BF20239F
:10385000184670470023E4E7036813F007020146A7
:103860000BD0DA0723D4980749BF5B089B080120D7
:103870000B605CBF0B600220704798B2A8B91B0CAC
:103880001020DAB20AB908301B0A1A0704BF1B0954
:1038900004309A0704BF9B080230DA0703D45B08A0
:1038A00000F1010005D00B6070471046E9E70020E9
:1038B000704720207047000010B50C460121FFF72B
:1038C00003FF024628B9054B05484FF4A07100F0EC
:1038D000BBFA01234461036110BD00BFAB5A00086D
:1038E0004F5A00082DE9F04F91460A69D9F8103077
:1038F0009A42B8BF0B460C46BCBF4C469946276956
:10390000D9F810A0A368616807EB0A06B34285B036
:10391000B8BF0131FFF7D8FE30B90246444B4548E5
:1039200040F25D1100F090FA00F1140505EB8608F5
:103930002B460022434521D304F1140303EB8707F0
:1039400009F1140303EB8A0202923A1B153A22F0A2
:103950000302043204F115018F4238BF04220192A0
:10396000029A03939A420CD8002E03DD58F8043DC6
:10397000002B5AD0066105B0BDE8F08F43F8042B48
:10398000D8E7B3F800A0BAF1000F24D004F1140E68
:10399000A9464FF0000C5EF8042BD9F800101FFA6E
:1039A00082FB89B20AFB0B114FEA124BD9F80020B7
:1039B00061444FEA124C0AFB0BC202EB114289B27E
:1039C00041EA0241774549F8041B4FEA124CE2D81C
:1039D000019A45F802C0039AB2F802900433B9F193
:1039E000000F20D0296804F1140CAE464FF0000AF5
:1039F000BCF800B0BEF8022009FB0B22924489B249
:103A000041EA0A414EF8041B5CF8042BBEF8001092
:103A1000120C09FB021101EB1A4167454FEA114AEA
:103A2000E6D8019AA95004359AE7013E9CE700BF09
:103A3000AB5A00084F5A00082DE9F843154612F01A
:103A4000030206460F4607D0254C013A002354F8DE
:103A50002220FFF79BFE0746AD103DD0746A7CB96B
:103A60001020FFF7EBFB0246706228B91D4B1E4881
:103A70004FF4D77100F0E8F9C0E901440460C46074
:103A8000D6F82480D8F808404CB940F2712130466D
:103A9000FFF712FF0023C8F80800044603604FF048
:103AA0000009EB070AD5394622463046FFF71AFFD0
:103AB000394680463046FFF747FE47466D100BD02B
:103AC000206838B9224621463046FFF70BFF2060B8
:103AD000C0F800900446E4E73846BDE8F88300BF2C
:103AE000B05B0008385A00084F5A00082DE9F0472B
:103AF0000C464968236903EB6218A36807469146A0
:103B00004FEA621A08F10106B3420BDB3846FFF7B1
:103B1000DBFD054648B902462A4B2B4840F2D91135
:103B200000F092F901315B00EEE7002300F114018F
:103B300000F110021846534537DB20692AEAEA7A79
:103B400004F1140319F01F0901EB8A0103EB800053
:103B50002FD0C9F1200E8A464FF0000C1A6802FAE5
:103B600009F242EA0C024AF8042B53F8042B98425B
:103B700022FA0EFCF2D8031B153B23F00303043397
:103B800004F11502904238BF042341F803C0BCF190
:103B9000000F01D008F10206013E38462E61214691
:103BA000FFF7D2FD2846BDE8F08742F8040F013345
:103BB000C1E7043953F8042B41F8042F9842F9D88F
:103BC000EAE700BFAB5A00084F5A000830B5026957
:103BD0000C69121B0ED100F11403143103EB8400A5
:103BE00001EB840150F8045D51F8044DA54203D067
:103BF00005D30122104630BD8342F3D3FAE74FF0DC
:103C0000FF32F7E72DE9F84F0C46064611462046ED
:103C10009046FFF7DBFF051E10D129463046FFF71F
:103C200053FD30B93A4B024640F23221394800F098
:103C30000BF90123C0E90435BDE8F88FA4BF434662
:103C4000A0463046D8F80410A6BF1C460025012522
:103C5000FFF73AFD20B92E4B02464FF41071E5E70D
:103C6000D8F810702669C56004F1140908F114052C
:103C700000F1140E05EB870C09EB860608F1100223
:103C8000F246002159F8043B52F804BF1FFA83F8AA
:103C900011FA8BF11B0CA1EB0808C3EB1B4303EBE0
:103CA00028431FFA88F819144E4548EA03434AF896
:103CB000043BE7D8331B153B23F0030304331534CF
:103CC000A64238BF04231D4473449E462E466645D3
:103CD0000ED30CF10302521B22F00302033DAC454C
:103CE00038BF00221A4452F8043D7BB10761A3E7B4
:103CF00056F8048B11FA88F2141404EB184492B2AB
:103D000042EA04424EF8042B2114E0E7013FEAE7BF
:103D1000AB5A00084F5A00082DE9F74389460121A4
:103D200057EC106B9046FFF7CFFC044630B90246C3
:103D3000254B264840F20A3100F086F8C7F30A55B1
:103D4000C7F3130335BB002E019328D068460096B5
:103D5000FFF782FD009900B3019AC0F1200302FA37
:103D600003F30B43C24063610192019BA361002BEB
:103D700014BF022201222261D5B1A5F233450544C8
:103D8000C9F80050C0F13500C8F80000204603B063
:103D9000BDE8F08343F48013D5E76161E5E701A84E
:103DA000FFF75AFD019B6361012222612030E3E7A6
:103DB00004EB8203A0F23240C9F800001869FFF753
:103DC0002BFDC0EB4210DFE7AB5A00084F5A00084A
:103DD0001728D0B5044607DC094800EBC404D4E931
:103DE000000141EC100BD0BD0649074F0020002612
:103DF00032463B46FCF700FC013CF9D1F1E700BF3D
:103E0000E85A00080000F03F0000244037B5A1FB4D
:103E100002244CB911460192FFF78CFA019A05462B
:103E200030B9284603B030BD0C2202600025F8E707
:103E30002146FFF70BFAF4E7034611F8012B03F8CC
:103E4000012B002AF9D170471FB514461A46094BB9
:103E50001B680546D8684CB1074B0091CDE9013489
:103E600006492B4600F08AFE01F058FA044B1C4626
:103E7000F3E700BF0C000020BC5B0008C95B000832
:103E8000F75B00082DE9F74F03690C69A342074669
:103E9000C0F28180013C01F1140800F1140505EB2A
:103EA0008403019358F8243055F8242001339A42B2
:103EB0004FEA840B08EB8409B2FBF3F631D34FF0E1
:103EC000000E4046AC46F24650F8042B93B206FB77
:103ED00003E34FEA134E9BB2AAEB0303DCF800A006
:103EE000120C13FA8AF306FB02E20093009B4FEADE
:103EF000124E92B2C2EB1A4202EB2342BDF80030DE
:103F0000814543EA02434CF8043B4FEA224ADBD2A4
:103F100055F80B302BB9019B043B9D421A462ED31A
:103F20003C613846FFF752FE002824DB0136284664
:103F30004FF0000C58F8042BD0F800E093B2ACEB33
:103F40000303120C13FA8EF3C2EB1E4202EB234260
:103F50009BB243EA0243C14540F8043B4FEA224C7E
:103F6000E8D255F8242005EB840322B9043B9D4296
:103F70001A460AD33C61304603B0BDE8F08F1268A0
:103F8000043B002ACCD1013CC7E71268043B002A5D
:103F9000F0D1013CEBE70020EEE70000000000005C
:103FA0002DE9F04F2DED048B57EC106B93B0456A63
:103FB000DDF88080069110EE10AA044609920C9359
:103FC000BB4675B91020FFF739F90246606220B987
:103FD000A74BEA21A748FFF737FFC0E90155056065
:103FE000C560636A196851B15A684A6001239340F9
:103FF0008B602046FFF7A8FB636A00221A603B1E15
:10400000AABF002323F0004BC8F800309A4BBCBF76
:104010000122C8F8002033EA0B031BD10C9A42F2AC
:104020000F731360CBF31303334300F09285219B8E
:1040300063B9924B22E0924B01930833219A1360AB
:10404000019813B0BDEC048BBDE8F08F8B4B01934E
:104050000333F3E70022002350465946FCF734FDB2
:104060004BEC19AB804658B10C9A01231360219B8D
:10407000002B00F06B8583481860431E0193DFE737
:104080004BEC10AB10AA11A92046FFF745FECBF36D
:104090000A5508EE100A002D00F0848019EE903ABF
:1040A000C3F3130343F07F57564647F44017A5F276
:1040B000FF35CDF83880744B002230463946FCF786
:1040C000E3F865A3D3E90023FCF796FA64A3D3E9E8
:1040D0000023FCF7DBF8064628460F46FCF722FAD9
:1040E00061A3D3E90023FCF787FA02460B4630466A
:1040F0003946FCF7CBF806460F46FCF717FD0022C1
:104100000090002330463946FCF7E8FC50B1009897
:10411000FCF708FA32463B46FCF7D6FC10B9009B88
:10412000013B0093009B162B5AD8009A574B03EB88
:10413000C203D3E9002351EC190BFCF7CFFC002894
:1041400050D0009B013B009300230B93109B5D1B01
:104150006B1E059345BFC5F10103049300230023A3
:104160004CBF05930493009B002B3DDB059B009AFD
:104170000A921344059300230793069B092B00F230
:104180008980052BC4BF043B0693069BA3F1020361
:10419000CCBF00250125032B00F28780DFE803F068
:1041A0002D3A3859DDE910531D4405F23243202BD6
:1041B000C1BFC3F1400305F212400BFA03F326FA24
:1041C00000F0DABFC3F1200306FA03F01843FCF74E
:1041D00099F901230646A1F1F877013D0E936AE7AC
:1041E0000123B2E70B90B1E7049B009A9B1A04935A
:1041F0005342079300230A93BFE700230893099BC8
:10420000002B55DC0123CDE902331A4609920CE05C
:104210000123F3E70023099A0893009B13440293B8
:104220000133012B0393B8BF0123606A002242606F
:10423000042202F114069E4241683DD92046FFF750
:1042400043FA019000283BD1114B02464FF4D5713F
:10425000C0E60123DFE700BF61436F63A787D23F5A
:10426000B3C8608B288AC63FFB799F501344D33F65
:10427000385A0008075C00080000F07F015C000865
:10428000F85B0008065C00080000F83FE85A0008E8
:10429000AB5A000801250023069308954FF0FF3321
:1042A000CDE9023300221223B0E701230893F5E79A
:1042B000099BCDE90233B8E7013141605200B8E70C
:1042C000636A019A1A60039B0E2B00F29D80002DF9
:1042D00000F09A80009B002B32DDB74A03F00F03F9
:1042E00002EBC303D3E90089009BD8054FEA2317EB
:1042F00016D5B24B51EC190BD3E90823FCF7A6FAFB
:1043000007F00F0782468B460325AC4E57B942464D
:104310004B4650465946FCF799FA82468B4628E0B0
:104320000225F2E7F90708D540464946D6E90023B9
:10433000FCF762F90135804689467F100836E5E7CB
:1043400000F09B80009B9D4F5E429B4B06F00F024E
:1043500003EBC203D3E9002351EC190BFCF74CF932
:10436000361182468B4600230225002E7AD1002B7F
:10437000D3D10B9B002B00F08280914B0022504642
:104380005946FCF7ABFB002879D0039B002B76D075
:10439000029B002B36DD009B504659465F1E0022D3
:1043A000884BFCF729F9029E82468B460135284648
:1043B000FCF7B8F852465B46FCF71EF9824B002228
:1043C000FBF764FFD046D9468246A1F1507B002E10
:1043D00058D17E4B002240464946FBF755FF5246D6
:1043E0005B4680468946FCF797FB002840F09582A3
:1043F00052460BF1004340464946FCF76FFB00284C
:1044000040F089825BEC19AB119B002BC0F2488114
:10441000009A0E2A00F34481674B03EBC203D3E9F1
:104420000089099B002B80F2D580039B002B00F3B1
:10443000D18040F06F82654B002240464946FCF730
:10444000DBF852465B46FCF75DFB039E37460028CF
:1044500040F04582019D312305F8013B009B01336B
:10446000009340E2F20705D5D7E90023FCF7C4F832
:10447000013501237610083777E7022579E7009F99
:10448000039E94E701994C4B31440D91089903EB3D
:10449000C60353E90223002943D04D490020FCF70D
:1044A000D5F952465B46FBF7EFFE019D82468B46EF
:1044B00049464046FCF73AFB0646FCF733F802460D
:1044C0000B4640464946FBF7DFFE303605F8016BE8
:1044D00052465B4680468946FCF700FB002863D1C4
:1044E00042464B4636490020FBF7CEFE52465B461D
:1044F000FCF7F4FA002840F0B5800D9B9D4281D076
:10450000304B002250465946FCF776F82D4B824638
:104510008B46404649460022FCF76EF880468946A5
:10452000C6E750465946FCF767F80D9B019D0F936F
:1045300082468B4649464046FCF7F8FA0646FBF7AA
:10454000F1FF303602460B4640464946FBF79CFEDB
:1045500005F8016B0D9B9D42804689464FF0000295
:1045600024D11B4B50465946FBF790FE02460B46A2
:1045700040464946FCF7D0FA002873D152465B46C4
:1045800013490020FBF780FE02460B464046494691
:10459000FCF7A4FA00283FF435AF0F9D6B1E0F9374
:1045A00015F8013C302BF8D0009749E0054BFCF79B
:1045B00023F880468946BDE7E85A0008C05A00083B
:1045C0000000F03F0000244000001C4000001440A8
:1045D0000000E03F019D56465F4642464B4630464E
:1045E0003946FCF733F9FCF7A1FA8246FBF79AFF4C
:1045F00042464B46FCF700F802460B463046394629
:104600000AF13006FBF740FE05F8016B019E039F9F
:10461000AE1BB74202460B4635D1FBF737FE42468A
:104620004B4606460F46FCF777FAD0B942464B4652
:1046300030463946FCF748FA10B11AF0010F10D194
:10464000204618EE101AFFF77FF8002300982B7011
:104650000C9B01301860219B002B3FF4F1AC1D60D6
:10466000EEE4009F2B461D4613F8012D392A06D192
:10467000019A9A42F7D10199302201370A701A78CB
:1046800001321A7090E7A64B0022FBF7B5FF00221B
:10469000002306460F46FCF717FA00289DD0CFE707
:1046A000089A002A00F0D780069A012A00F3BA80FF
:1046B0000E9A002A00F0B28003F23343079E049D55
:1046C000049A1A440492059A01211A44204605923C
:1046D000FFF7F2F80746002D0CDD059B002B09DDE6
:1046E000AB42049AA8BF2B46D21A0492059AED1A3F
:1046F000D31A0593079B1BB3089B002B00F0AF80D8
:10470000002E13DD394632462046FFF795F918EEA4
:10471000102A014607462046FFF7E4F818EE101A63
:1047200080462046FFF710F808EE108A079B9A1B78
:1047300006D018EE101A2046FFF77EF908EE100A90
:1047400001212046FFF7B8F80A9B002B064640F3EC
:1047500088801A4601462046FFF76EF9069B012B1A
:10476000064640F381804FF00008336906EB83036F
:104770001869FFF751F8C0F12000059B184410F0AC
:104780001F0000F09280C0F12003042B40F38A80C8
:10479000C0F11C00049B03440493059B034405449F
:1047A0000593049B002B07DD18EE101A1A462046CD
:1047B000FFF79CF908EE100A059B002B05DD31463A
:1047C0001A462046FFF792F906460B9B002B6ED047
:1047D00018EE100A3146FFF7F9F9002867DA009B56
:1047E000013B18EE101A00930A2200232046FEF720
:1047F000CDFF089B08EE100A002B00F0B1810023CA
:1048000039460A222046FEF7C1FF029B002B0746CD
:1048100000F38E80069B022B51DC89E0109BC3F1D4
:1048200036034BE7039B5E1E079BB342BFBF079B4C
:104830000796F21A0A9BB6BF9B189E1B0A93039B0E
:10484000B8BF0026002BB7BFDDE90323DDE9033540
:104850009D1A002334E7079E049D089F3BE7079AB3
:1048600067E7069B012B18DCBAF1000F15D1CBF3DB
:10487000130393B92BF000431B0D1B0583B1049B5D
:1048800001330493059B013305934FF001080A9B04
:10489000002B7FF46AAF01206FE74FF00008F6E7C6
:1048A0009846F4E73FF47DAF18461C3072E7039B4F
:1048B000002B37DC069B022B34DD039B0293029B0B
:1048C0006BB9314605222046FEF760FF01460646D9
:1048D00018EE100AFFF77AF900283FF7BBAD099BE5
:1048E000019DDB4300934FF0000831462046FEF760
:1048F0002BFF002F3FF4A4AEB8F1000F05D0B84550
:1049000003D041462046FEF71FFF39462046FEF7FA
:104910001BFF95E600263746E1E70097374699E505
:1049200000002440089B002B00F0CA80039B0293E8
:10493000002D05DD39462A462046FFF7D7F8074601
:10494000B8F1000F5BD079682046FEF7BDFE054642
:1049500028B9874B024640F2EA21FFF73BBB3A6990
:104960000232920007F10C010C3000F01CF9012218
:1049700029462046FFF7BAF8019B03F10109DDE95A
:104980000123134405930AF00103B8460493074634
:10499000314618EE100AFFF775FA4146029000F111
:1049A000300A18EE100AFFF711F93A460390314623
:1049B0002046FFF727F9C26809F1FF3B054602BB15
:1049C000014618EE100AFFF701F902462946204673
:1049D0000792FEF7B9FEDDE9063243EA0201049BC5
:1049E0000B434D460FD1BAF1390F2AD0039B002B50
:1049F00002DD029B03F1310A8BF800A075E738460F
:104A0000BAE70122E2E7039B002B04DB06990B4384
:104A100004990B4322D1002AEEDD18EE101A012270
:104A20002046FFF763F8314608EE100AFFF7CEF88C
:104A3000002803DCE0D11AF0010FDDD0BAF1390F04
:104A4000D7D139238BF800302B461D46013B15F892
:104A5000012C392A71D001321A7046E7002A07DD8D
:104A6000BAF1390FEDD00AF101038BF800303CE7C1
:104A7000059B09F801AC994547D018EE101A0023A0
:104A80000A222046FEF782FEB84508EE100A4FF0D3
:104A900000034FF00A024146204606D1FEF776FE9B
:104AA0008046074609F1010972E7FEF76FFE3946B5
:104AB000804600230A222046FEF768FE0746F1E7FB
:104AC000039B0293019D18EE100A3146FFF7DAF9B5
:104AD00000F1300A019B05F801ABEA1A029B9342F0
:104AE00009DD18EE101A00230A222046FEF74EFEBA
:104AF00008EE100AE7E7029B002BC8BF1D46019B8A
:104B0000D8BF01251D444FF0000818EE101A0122ED
:104B10002046FEF7EBFF314608EE100AFFF756F885
:104B2000002891DC02D11AF0010F8DD12B461D46D1
:104B300013F8012D302AFAD0D7E6019A9A4284D18F
:104B4000009B0133009331231370CEE6094BFFF72E
:104B500095BA219B002B7FF46EAA074BFFF78EBA04
:104B6000029B002BAEDC069B022B3FF7A8AEA9E709
:104B7000AB5A0008055C0008F85B00080EB403B5EA
:104B8000014603AB054853F8042B0068019300F07D
:104B900041F802B05DF804EB03B070470C00002050
:104BA0007047704770470A44914200F1FF3300D1CB
:104BB000704710B511F8014B03F8014F9142F9D13C
:104BC00010BD9368013B002B10B4936008DA946920
:104BD000A34201DB0A2903D15DF8044B00F0DEBAE1
:104BE0001368581C1060197008465DF8044B704734
:104BF000F8B506460F461446D518AC4201D1002040
:104C000007E014F8011B3A463046FFF7DAFF431C71
:104C1000F3D1F8BD2DE9F04F0D469DB014469846EE
:104C2000064618B183690BB900F09AFC894B9D4286
:104C30001BD175686B6ED90705D4AB899A0502D470
:104C4000A86DFFF7AEFFAB891B0701D52B69EBB948
:104C50002946304600F0F4FAC0B16B6EDC070ED581
:104C60004FF0FF301DB0BDE8F08F7B4B9D4201D16E
:104C7000B568DFE7794B9D4208BFF568DAE7AB8995
:104C80009805EDD4A86DFFF78DFFE9E700230993A0
:104C900020238DF82930CDF80C803023DFF8C08137
:104CA0008DF82A304FF0010923469A4613F8012B5C
:104CB0000AB1252AF9D1BAEB040B0BD05B46224688
:104CC00029463046FFF794FF013000F0AA80099A88
:104CD0005A4409929AF80030002B00F0A280002379
:104CE0004FF0FF32CDE905230AF1010A049307933F
:104CF0008DF853301A935446052214F8011B584876
:104D0000FBF76EFA049AD8B9D10644BF20238DF878
:104D10005330130744BF2B238DF853309AF80030DB
:104D20002A2B15D0079A544600204FF00A0C214632
:104D300011F8013B303B092B4ED9B0B1079214E07A
:104D4000A0EB080309FA03F313430493A246D2E746
:104D5000039B191D1B680391002BBBBF5B4242F0F4
:104D6000020207930793B8BF049223782E2B0CD12D
:104D700063782A2B35D1039B1A1D1B680392002BE5
:104D8000B8BF4FF0FF3302340593DFF8E4A0217879
:104D900003225046FBF724FA40B14023A0EB0A005F
:104DA00003FA00F0049B03430134049314F8011B3D
:104DB0002C488DF828100622FBF712FA00283FD065
:104DC000294B1BBB039B073323F0070308330393D3
:104DD000099B3B44099367E70CFB02320C46012018
:104DE000A5E700230134059319464FF00A0C20462D
:104DF00010F8012B303A092A03D9002BC5D00591B0
:104E0000C3E70CFB012104460123F0E703AB009349
:104E10002A46164B04A93046AFF300800746781C9B
:104E2000D6D16B6ED90705D4AB899A0502D4A86D8B
:104E3000FFF7B8FEAB895B063FF512AF099811E7A3
:104E400003AB00932A46094B04A9304600F080F8D2
:104E5000E4E700BFB85C0008D85C0008985C000874
:104E6000625C00086C5C000800000000F14B000868
:104E7000685C00082DE9F047164699468A680B6978
:104E8000DDF820809342B8BF1346336091F8432089
:104E900007460C460AB1013333602368990642BFC6
:104EA000336802333360256815F0060506D104F136
:104EB000190AE36832689B1AAB4226DC94F8432057
:104EC000131E226818BF012392062BD404F143025B
:104ED00049463846C04701301ED02368E56832682D
:104EE00003F00603042B08BFAD1AA36822690CBFA8
:104EF00025EAE57500259342C4BF9B1AED180026EC
:104F00001A34B5421AD1002008E00123524649461E
:104F10003846C047013003D14FF0FF30BDE8F0877D
:104F20000135C6E7E1185A1C302081F843002244BD
:104F300094F8451082F843100233C7E70123224654
:104F400049463846C0470130E6D00136D9E700006F
:104F50002DE9FF470F7E0C9D782F914680460C4629
:104F60009A4601F1430207D8622F0AD8002F00F0B9
:104F7000D880582F00F0A38004F1420584F84270D5
:104F80003AE0A7F16303152BF6D801A151F823F0FD
:104F9000E94F0008FD4F0008794F0008794F0008DD
:104FA000794F0008794F0008FD4F0008794F00083D
:104FB000794F0008794F0008794F0008095100081F
:104FC0002D500008EB500008794F0008794F000879
:104FD0002B510008794F00082D500008794F000828
:104FE000794F0008F35000082B681A1D1B682A60CF
:104FF00004F1420584F842300123A3E020682968C7
:10500000060601F104030AD50E682B60002E03DAB0
:105010002D23764284F843305E480A2319E00E6857
:105020002B6010F0400F18BF36B2EFE72B682068F6
:10503000191D2960010601D51E6802E04606FBD550
:105040001E8854486F2F0CBF08230A23002184F8C0
:1050500043106568A560002DA2BF216821F00401FE
:1050600021600EB9002D4DD01546B6FBF3F103FBC0
:105070001167C75D05F8017D3746BB420E46F4D97E
:10508000082B0BD12368DE0708D523696168994294
:10509000DEBF302305F8013C05F1FF35521B2261CC
:1050A000CDF800A04B4603AA21464046FFF7E2FE9A
:1050B00001304CD14FF0FF3004B0BDE8F0873548E7
:1050C00081F845702968236851F8046B29601D0632
:1050D00014D5DF0744BF43F0200323601EB92368C3
:1050E00023F0200323601023B0E7236843F020035C
:1050F00023607823284884F84530E3E7590648BF01
:10510000B6B2E6E71546BBE72B6826686169181D4D
:10511000286035061B6801D5196002E07006FBD5D2
:105120001980002323611546BAE72B681A1D2A60EF
:105130001D68626800212846FBF752F808B1401B41
:10514000606063682361002384F84330A8E7236923
:105150002A4649464046D0470130ABD023689B07DA
:1051600013D4E068039B9842B8BF1846A4E7012314
:10517000324649464046D04701309BD00135E3686E
:1051800003995B1AAB42F2DCEBE7002504F1190648
:10519000F5E700BF735C0008845C0008F8B50E46B4
:1051A0001446054618B183690BB900F0D9F9214BB3
:1051B0009C422BD16C68A369A360A3891A072FD5E1
:1051C00023696BB323692068C01A6369F6B283420E
:1051D000374604DC2146284600F02EF930BBA36890
:1051E000013BA36023685A1C22601E706369013072
:1051F000834204D0A389DB0706D50A2E04D12146B9
:10520000284600F019F988B93846F8BD0A4B9C4287
:1052100001D1AC68CFE7094B9C4208BFEC68CAE7F4
:105220002146284600F00CF80028CBD04FF0FF377D
:10523000EAE700BFB85C0008D85C0008985C00088A
:10524000324B70B51D6806460C4625B1AB6913B9E3
:10525000284600F085F92E4B9C420FD16C68A3893B
:10526000B4F90C2019072CD4DD0611D409233360BE
:1052700042F04003A3814FF0FF303EE0254B9C42BB
:1052800001D1AC68EBE7244B9C4208BFEC68E6E731
:10529000580712D5616B41B104F14403994202D021
:1052A0003046FDF7DBFF00236363A38923F024036B
:1052B000A3810023636023692360A38943F008036B
:1052C000A38123694BB9A38903F42073B3F5007F4D
:1052D00003D02146304600F005FAA089B4F90C202D
:1052E00010F001030AD00023A36063695B42A3614D
:1052F000236943B910F08000BAD170BD810758BF4F
:105300006369A360F4E70020F7E700BF0C0000200A
:10531000B85C0008D85C0008985C000808B5062056
:1053200000F048FA0120FCF765FC00008A892DE9AD
:10533000F041054610070C4658D44B68002B05DC9D
:105340000B6C002B02DC0020BDE8F081E66A002E29
:10535000F9D0002312F480522F682B6032D0606D98
:10536000A3895A0705D56368C01A636B0BB1236C18
:10537000C01A00230246E66A216A2846B047431C49
:10538000A38906D129681D292CD82A4ACA40D607E4
:1053900028D500226260D9042269226004D5421C0B
:1053A00001D12B6803B96065616B2F600029CAD0F9
:1053B00004F14403994202D02846FDF74FFF002034
:1053C0006063C1E7216A01232846B047411CC7D169
:1053D0002B68002BC4D01D2B01D0162B01D12F60C0
:1053E000B1E7A38943F04003A381ADE70F69002F24
:1053F000A9D093070E6808BF4B690F6018BF002340
:10540000A6EB07088B60B8F1000F9CDD216AA66A45
:1054100043463A462846B047002806DCA38943F0B5
:105420004003A3814FF0FF308EE70744A8EB00084C
:10543000E9E700BF0100402038B50B6905460C467E
:1054400013B90025284638BD18B183690BB900F09F
:1054500087F8144B9C421BD16C68B4F90C30002BBC
:10546000EFD0626ED00704D4990502D4A06DFFF787
:1054700098FB28462146FFF759FF636EDA07054679
:10548000E0D4A3899B05DDD4A06DFFF78BFBD9E7A2
:10549000054B9C4201D1AC68DFE7044B9C4208BF3E
:1054A000EC68DAE7B85C0008D85C0008985C000893
:1054B000002310B50446C0E90033C0E9043383601B
:1054C00081814366C2818361194608225C30FDF701
:1054D000BDFE054B6362054BA362054BE362054BC2
:1054E0002462236310BD00BFED5700080F58000869
:1054F000475800086B580008014900F0AFB800BFDA
:105500003954000870B568224D1E55430E4605F10A
:105510007401FDF70FFF044640B10021C0E90016F9
:105520000C30A06005F16802FDF790FE204670BDCA
:105530000148FFF736BB00BFF50200200148FFF726
:1055400031BB00BFF50200200148FFF72ABB00BFB6
:10555000F60200200148FFF725BB00BFF60200203D
:1055600010B50446FFF7F0FFA3691BB1BDE810407A
:10557000FFF7F0BFC4E912332365134B134A1B68CE
:10558000A262A34204BF0123A361204600F020F8D9
:105590006060204600F01CF8A060204600F018F87B
:1055A0000022E06004216068FFF782FFA06801220A
:1055B0000921FFF77DFFE06802221221FFF778FF43
:1055C0000123A361D2E700BF345A0008F954000850
:1055D000F8B50746FFF7ACFF1E4B1E68B36913B959
:1055E0003046FFF7BDFF4836D6E90134013B03D50D
:1055F00033680BB33668F7E7B4F90C50D5B9164BDE
:10560000E36004F158006566FFF7CAFAFFF796FFFA
:10561000C4E90155C4E904552560A561082229465D
:1056200004F15C00FDF712FEC4E90D55C4E9125502
:105630002046F8BD6834D9E704213846FFF762FFF9
:10564000044630600028D5D1FFF778FF0C233B607B
:10565000EEE700BF345A00080100FFFF2DE9F843D0
:105660000646884600F148040027D4E90195B9F1BF
:10567000010905D52468002CF7D13846BDE8F88328
:10568000AB89012B07D9B5F90E30013303D0294678
:105690003046C04707436835E9E770B50E46B1F9B3
:1056A0000E10002996B014461D4608DAB6F90C30E3
:1056B00000222A601A0610D44FF480630EE06A4676
:1056C00000F0FAF80028F1DB019A02F47042A2F52A
:1056D00000535A425A412A60EEE7402300202360DB
:1056E00016B070BD8B8973B59D0706460C4607D56D
:1056F00004F14703236023610123636102B070BD9D
:1057000001AB6A46FFF7C9FF009905463046FDF731
:1057100011FE48B9B4F90C309A05EFD423F0030315
:1057200043F00203A381E3E70D4BB362A38920603A
:1057300043F08003A381009B6361019B20615BB107
:10574000B4F90E10304600F0C9F828B1A38923F04F
:10575000030343F00103A381A0890543A581CDE79D
:10576000F95400081F2938B504460D4604D91623FC
:1057700003604FF0FF3038BD426C12B152F8213057
:105780004BB9204600F030F82A4601462046BDE8D5
:10579000384000F017B8012B0AD0591C03D116234A
:1057A00003600120E7E7002442F825402846984797
:1057B0000020E0E7024B01461868FFF7D3BF00BFA7
:1057C0000C00002038B5074D00230446084611465A
:1057D0002B60FCF707FA431C02D12B6803B123604E
:1057E00038BD00BFF0020020FCF7FAB910B50C4636
:1057F000B1F90E1000F094F80028ABBF636DA389D7
:105800001B1823F48053ACBF6365A38110BD2DE941
:10581000F0411F468B89DB0505460C46164605D52B
:10582000B1F90E100223002200F068F8A389B4F940
:105830000E1023F48053A38132463B462846BDE830
:10584000F04100F017B810B50C46B1F90E1000F099
:1058500055F8431CA38915BF606523F4805343F4B6
:105860008053A38118BFA38110BDB1F90E1000F0C1
:1058700013B8000038B5074D04460846114600220B
:105880002A601A46FCF7C9F9431C02D12B6803B100
:10589000236038BDF002002038B5064D00230446D1
:1058A00008462B60FCF7C6F9431C02D12B6803B1F4
:1058B000236038BDF002002038B5074D00230446B0
:1058C000084611462B60FCF7B8F9431C02D12B683F
:1058D00003B1236038BD00BFF002002038B5064D8B
:1058E0000023044608462B60FCF7ACF9431C02D1A8
:1058F0002B6803B1236038BDF002002038B5074D96
:1059000004460846114600222A601A46FCF79CF914
:10591000431C02D12B6803B1236038BDF002002084
:1059200038B5074D04460846114600222A601A463B
:10593000FCF766F9431C02D12B6803B1236038BD24
:10594000F0020020F8B500BFF8BC08BC9E467047C6
:0C595000F8B500BFF8BC08BC9E467047CC
:1059600020204469737472696275746F7220446197
:10597000746120200000000052504D202020202083
:105980002020202020202020202020200000000097
:10599000416476616E636520446567202020202085
:1059A00020202020000000004477656C6C204465B6
:1059B0006720202020202020202020200000000020
:1059C0004477656C6C4465672052504D3A20202026
:1059D0002020202000000000202020202020202047
:1059E0002020202020202020202020200000000037
:1059F0004477656C6C206D732052504D3A20202006
:105A000020202020000000004164762020446567AB
:105A10002052504D3A20202020202020000000005D
:105A20006572720000000000000000000102030423
:105A300006070809100000205245454E54206D61AC
:105A40006C6C6F6320737563636565646564002FB8
:105A50006275696C642F676E752D746F6F6C732D32
:105A6000666F722D73746D33325F31302E332D3289
:105A70003032312E31302E32303234303932362D10
:105A8000313731352F7372632F6E65776C69622FF2
:105A90006E65776C69622F6C6962632F7374646CD6
:105AA00069622F6D707265632E630042616C6C6F6A
:105AB00063207375636365656465640000000000BE
:105AC0000080E03779C34143176E05B5B5B89346FA
:105AD000F5F93FE9034F384D321D30F94877825AC6
